{
  "contractName": "Test",
  "abi": [
    {
      "inputs": [],
      "stateMutability": "nonpayable",
      "type": "constructor"
    },
    {
      "inputs": [
        {
          "internalType": "uint256",
          "name": "",
          "type": "uint256"
        }
      ],
      "name": "user_list2",
      "outputs": [
        {
          "internalType": "string",
          "name": "password",
          "type": "string"
        },
        {
          "internalType": "string",
          "name": "name",
          "type": "string"
        },
        {
          "internalType": "uint8",
          "name": "age",
          "type": "uint8"
        }
      ],
      "stateMutability": "view",
      "type": "function",
      "constant": true
    },
    {
      "inputs": [
        {
          "internalType": "string",
          "name": "_id",
          "type": "string"
        },
        {
          "internalType": "string",
          "name": "_pass",
          "type": "string"
        },
        {
          "internalType": "string",
          "name": "_name",
          "type": "string"
        },
        {
          "internalType": "uint8",
          "name": "_age",
          "type": "uint8"
        }
      ],
      "name": "add_user",
      "outputs": [],
      "stateMutability": "nonpayable",
      "type": "function"
    },
    {
      "inputs": [
        {
          "internalType": "string",
          "name": "_id",
          "type": "string"
        }
      ],
      "name": "view_user",
      "outputs": [
        {
          "internalType": "string",
          "name": "",
          "type": "string"
        },
        {
          "internalType": "string",
          "name": "",
          "type": "string"
        },
        {
          "internalType": "uint8",
          "name": "",
          "type": "uint8"
        }
      ],
      "stateMutability": "view",
      "type": "function",
      "constant": true
    },
    {
      "inputs": [],
      "name": "view_count",
      "outputs": [
        {
          "internalType": "uint256",
          "name": "",
          "type": "uint256"
        }
      ],
      "stateMutability": "view",
      "type": "function",
      "constant": true
    },
    {
      "inputs": [],
      "name": "view_list",
      "outputs": [
        {
          "internalType": "string[]",
          "name": "",
          "type": "string[]"
        }
      ],
      "stateMutability": "view",
      "type": "function",
      "constant": true
    },
    {
      "inputs": [
        {
          "internalType": "string",
          "name": "_id",
          "type": "string"
        }
      ],
      "name": "check_id",
      "outputs": [
        {
          "internalType": "bool",
          "name": "",
          "type": "bool"
        }
      ],
      "stateMutability": "view",
      "type": "function",
      "constant": true
    }
  ],
  "bytecode": "0x608060405234801561001057600080fd5b50336000806101000a81548173ffffffffffffffffffffffffffffffffffffffff021916908373ffffffffffffffffffffffffffffffffffffffff1602179055506000600181905550611093806100686000396000f3fe608060405234801561001057600080fd5b50600436106100625760003560e01c806314720211146100675780631cd136db14610097578063396d3f91146100b357806339c614a1146100e55780636ddfdee914610103578063dda3911114610121575b600080fd5b610081600480360381019061007c9190610848565b610153565b60405161008e91906108ac565b60405180910390f35b6100b160048036038101906100ac9190610900565b6101a0565b005b6100cd60048036038101906100c891906109f1565b610319565b6040516100dc93929190610aac565b60405180910390f35b6100ed610470565b6040516100fa9190610b00565b60405180910390f35b61010b61047a565b6040516101189190610c27565b60405180910390f35b61013b60048036038101906101369190610848565b610553565b60405161014a93929190610aac565b60405180910390f35b6000806002836040516101669190610c85565b908152602001604051809103902060020160009054906101000a900460ff1660ff1614610196576000905061019b565b600190505b919050565b60008054906101000a900473ffffffffffffffffffffffffffffffffffffffff1673ffffffffffffffffffffffffffffffffffffffff163373ffffffffffffffffffffffffffffffffffffffff161461022e576040517f08c379a000000000000000000000000000000000000000000000000000000000815260040161022590610ce8565b60405180910390fd5b8260028560405161023f9190610c85565b9081526020016040518091039020600001908161025c9190610f14565b508160028560405161026e9190610c85565b9081526020016040518091039020600101908161028b9190610f14565b508060028560405161029d9190610c85565b908152602001604051809103902060020160006101000a81548160ff021916908360ff1602179055506003849080600181540180825580915050600190039060005260206000200160009091909190915090816102fa9190610f14565b506001600081548092919061030e90611015565b919050555050505050565b6004818154811061032957600080fd5b906000526020600020906003020160009150905080600001805461034c90610d37565b80601f016020809104026020016040519081016040528092919081815260200182805461037890610d37565b80156103c55780601f1061039a576101008083540402835291602001916103c5565b820191906000526020600020905b8154815290600101906020018083116103a857829003601f168201915b5050505050908060010180546103da90610d37565b80601f016020809104026020016040519081016040528092919081815260200182805461040690610d37565b80156104535780601f1061042857610100808354040283529160200191610453565b820191906000526020600020905b81548152906001019060200180831161043657829003601f168201915b5050505050908060020160009054906101000a900460ff16905083565b6000600154905090565b60606003805480602002602001604051908101604052809291908181526020016000905b8282101561054a5783829060005260206000200180546104bd90610d37565b80601f01602080910402602001604051908101604052809291908181526020018280546104e990610d37565b80156105365780601f1061050b57610100808354040283529160200191610536565b820191906000526020600020905b81548152906001019060200180831161051957829003601f168201915b50505050508152602001906001019061049e565b50505050905090565b60608060006002846040516105689190610c85565b90815260200160405180910390206000016002856040516105899190610c85565b90815260200160405180910390206001016002866040516105aa9190610c85565b908152602001604051809103902060020160009054906101000a900460ff168280546105d590610d37565b80601f016020809104026020016040519081016040528092919081815260200182805461060190610d37565b801561064e5780601f106106235761010080835404028352916020019161064e565b820191906000526020600020905b81548152906001019060200180831161063157829003601f168201915b5050505050925081805461066190610d37565b80601f016020809104026020016040519081016040528092919081815260200182805461068d90610d37565b80156106da5780601f106106af576101008083540402835291602001916106da565b820191906000526020600020905b8154815290600101906020018083116106bd57829003601f168201915b505050505091509250925092509193909250565b6000604051905090565b600080fd5b600080fd5b600080fd5b600080fd5b6000601f19601f8301169050919050565b7f4e487b7100000000000000000000000000000000000000000000000000000000600052604160045260246000fd5b6107558261070c565b810181811067ffffffffffffffff821117156107745761077361071d565b5b80604052505050565b60006107876106ee565b9050610793828261074c565b919050565b600067ffffffffffffffff8211156107b3576107b261071d565b5b6107bc8261070c565b9050602081019050919050565b82818337600083830152505050565b60006107eb6107e684610798565b61077d565b90508281526020810184848401111561080757610806610707565b5b6108128482856107c9565b509392505050565b600082601f83011261082f5761082e610702565b5b813561083f8482602086016107d8565b91505092915050565b60006020828403121561085e5761085d6106f8565b5b600082013567ffffffffffffffff81111561087c5761087b6106fd565b5b6108888482850161081a565b91505092915050565b60008115159050919050565b6108a681610891565b82525050565b60006020820190506108c1600083018461089d565b92915050565b600060ff82169050919050565b6108dd816108c7565b81146108e857600080fd5b50565b6000813590506108fa816108d4565b92915050565b6000806000806080858703121561091a576109196106f8565b5b600085013567ffffffffffffffff811115610938576109376106fd565b5b6109448782880161081a565b945050602085013567ffffffffffffffff811115610965576109646106fd565b5b6109718782880161081a565b935050604085013567ffffffffffffffff811115610992576109916106fd565b5b61099e8782880161081a565b92505060606109af878288016108eb565b91505092959194509250565b6000819050919050565b6109ce816109bb565b81146109d957600080fd5b50565b6000813590506109eb816109c5565b92915050565b600060208284031215610a0757610a066106f8565b5b6000610a15848285016109dc565b91505092915050565b600081519050919050565b600082825260208201905092915050565b60005b83811015610a58578082015181840152602081019050610a3d565b60008484015250505050565b6000610a6f82610a1e565b610a798185610a29565b9350610a89818560208601610a3a565b610a928161070c565b840191505092915050565b610aa6816108c7565b82525050565b60006060820190508181036000830152610ac68186610a64565b90508181036020830152610ada8185610a64565b9050610ae96040830184610a9d565b949350505050565b610afa816109bb565b82525050565b6000602082019050610b156000830184610af1565b92915050565b600081519050919050565b600082825260208201905092915050565b6000819050602082019050919050565b600082825260208201905092915050565b6000610b6382610a1e565b610b6d8185610b47565b9350610b7d818560208601610a3a565b610b868161070c565b840191505092915050565b6000610b9d8383610b58565b905092915050565b6000602082019050919050565b6000610bbd82610b1b565b610bc78185610b26565b935083602082028501610bd985610b37565b8060005b85811015610c155784840389528151610bf68582610b91565b9450610c0183610ba5565b925060208a01995050600181019050610bdd565b50829750879550505050505092915050565b60006020820190508181036000830152610c418184610bb2565b905092915050565b600081905092915050565b6000610c5f82610a1e565b610c698185610c49565b9350610c79818560208601610a3a565b80840191505092915050565b6000610c918284610c54565b915081905092915050565b7f4f6e6c79206f776e65722063616e2063616c6c2066756e6374696f6e00000000600082015250565b6000610cd2601c83610a29565b9150610cdd82610c9c565b602082019050919050565b60006020820190508181036000830152610d0181610cc5565b9050919050565b7f4e487b7100000000000000000000000000000000000000000000000000000000600052602260045260246000fd5b60006002820490506001821680610d4f57607f821691505b602082108103610d6257610d61610d08565b5b50919050565b60008190508160005260206000209050919050565b60006020601f8301049050919050565b600082821b905092915050565b600060088302610dca7fffffffffffffffffffffffffffffffffffffffffffffffffffffffffffffffff82610d8d565b610dd48683610d8d565b95508019841693508086168417925050509392505050565b6000819050919050565b6000610e11610e0c610e07846109bb565b610dec565b6109bb565b9050919050565b6000819050919050565b610e2b83610df6565b610e3f610e3782610e18565b848454610d9a565b825550505050565b600090565b610e54610e47565b610e5f818484610e22565b505050565b5b81811015610e8357610e78600082610e4c565b600181019050610e65565b5050565b601f821115610ec857610e9981610d68565b610ea284610d7d565b81016020851015610eb1578190505b610ec5610ebd85610d7d565b830182610e64565b50505b505050565b600082821c905092915050565b6000610eeb60001984600802610ecd565b1980831691505092915050565b6000610f048383610eda565b9150826002028217905092915050565b610f1d82610a1e565b67ffffffffffffffff811115610f3657610f3561071d565b5b610f408254610d37565b610f4b828285610e87565b600060209050601f831160018114610f7e5760008415610f6c578287015190505b610f768582610ef8565b865550610fde565b601f198416610f8c86610d68565b60005b82811015610fb457848901518255600182019150602085019450602081019050610f8f565b86831015610fd15784890151610fcd601f891682610eda565b8355505b6001600288020188555050505b505050505050565b7f4e487b7100000000000000000000000000000000000000000000000000000000600052601160045260246000fd5b6000611020826109bb565b91507fffffffffffffffffffffffffffffffffffffffffffffffffffffffffffffffff820361105257611051610fe6565b5b60018201905091905056fea26469706673582212208bb0c5430611b1c5c8dca98d6d1f1112f4088089619f61c2005ad7655da407aa64736f6c63430008130033",
  "immutableReferences": {},
  "source": "// SPDX-License-Identifier: MIT\r\npragma solidity ^0.8.15;\r\n\r\ncontract Test {\r\n    //  \r\n    address internal owner;\r\n    uint internal count;\r\n\r\n    //  \r\n    struct user_info {\r\n        string password;\r\n        string name;\r\n        uint8 age;\r\n    }\r\n\r\n    //   \r\n    constructor() {\r\n        // msg.sender: deploy    \r\n        owner = msg.sender; \r\n        count = 0;\r\n    }\r\n\r\n    // mapping   = json  \r\n    mapping (string => user_info) internal users;\r\n\r\n    //  \r\n    string[] internal user_list;\r\n\r\n    //   \r\n    user_info[] public user_list2;\r\n\r\n    // modifier\r\n    modifier onlyOwner {\r\n        require(msg.sender == owner, \"Only owner can call function\");\r\n        _; //  :      \r\n    }\r\n\r\n    modifier increament {\r\n        _; //   !\r\n        count++;\r\n    }\r\n\r\n    //user  users mapping \r\n    function add_user(string memory _id, string memory _pass, string memory _name, uint8 _age) public onlyOwner increament {\r\n        // _id key \r\n\r\n        //  \r\n        //require(msg.sender == owner, \"only owner can call function\");\r\n        // ==>    \r\n        \r\n        //     \r\n        users[_id].password = _pass;\r\n        users[_id].name = _name;\r\n        users[_id].age = _age;\r\n        //   id  \r\n        user_list.push(_id);\r\n    }\r\n\r\n    //    \r\n    //      == gas  X\r\n    function view_user(string memory _id) public view returns (string memory, string memory, uint8) {\r\n        return (users[_id].password, users[_id].name, users[_id].age);\r\n    }\r\n\r\n    // count    \r\n    function view_count() public view returns(uint){\r\n        return count;\r\n    }\r\n\r\n    //    \r\n    function view_list() public view returns(string[] memory) {\r\n        return user_list;\r\n    }\r\n\r\n    //  ? ()  \r\n    function check_id(string memory _id) public view returns (bool) {\r\n        if(users[_id].age != 0) { //    0  (uint ) \r\n            return false;\r\n        } else {\r\n            return true;\r\n        }\r\n    }\r\n}",
  "sourcePath": "C:\\hanwon\\andspace\\server\\contract_server\\contracts\\test.sol",
  "compiler": {
    "name": "solc",
    "version": "0.8.19+commit.7dd6d404.Emscripten.clang"
  },
  "schemaVersion": "3.4.14",
  "updatedAt": "2023-06-14T07:45:47.953Z",
  "networkType": "ethereum",
  "devdoc": {
    "kind": "dev",
    "methods": {},
    "version": 1
  },
  "userdoc": {
    "kind": "user",
    "methods": {},
    "version": 1
  }
}